:020000040800F2
:10000000A80400209D010008731A00087118000858
:10001000711A0008250B00083920000800000000B4
:10002000000000000000000000000000771A000837
:10003000270B000800000000751A00089D1A000830
:10004000B7010008B7010008B7010008B7010008B0
:10005000B7010008B7010008B7010008B7010008A0
:10006000B7010008B7010008B7010008B701000890
:10007000B7010008B7010008B7010008B701000880
:10008000B7010008B7010008B7010008B701000870
:10009000B7010008B7010008B7010008B701000860
:1000A000B7010008B7010008B7010008B701000850
:1000B000B7010008B7010008B7010008B701000840
:1000C000B7010008B7010008B7010008B701000830
:1000D000B70100082D200008B7010008B70100088B
:1000E000B7010008B7010008B7010008B701000810
:1000F000B7010008B7010008B7010008B701000800
:10010000B7010008B7010008B7010008B7010008EF
:10011000B7010008B7010008B7010008B7010008DF
:10012000B7010008B7010008B7010008B7010008CF
:10013000B7010008B7010008B7010008B7010008BF
:10014000B7010008B7010008B7010008B7010008AF
:10015000B7010008B7010008B7010008B70100089F
:10016000B7010008B7010008B7010008B70100088F
:10017000B7010008B7010008B7010008000000003F
:10018000B7010008B7010008DFF80CD000F072FBDF
:1001900000480047E9330008A804002006488047CB
:1001A00006480047FEE7FEE7FEE7FEE7FEE7FEE75C
:1001B000FEE7FEE7FEE7FEE7251B000889010008D1
:1001C0002DE9F05F0546002092469B46884606468C
:1001D000814640241BE0284641464746224600F01F
:1001E00053FA53465A46C01A914110D31146184645
:1001F000224600F03AFA2D1A67EB01084F462246D4
:100200000120002100F031FA17EB00094E41201EB9
:10021000A4F10104DFDC484631462A464346BDE8E6
:10022000F09FD2B201E000F8012B491EFBD27047CB
:100230000022F6E710B513460A4604461946FFF7B2
:10024000F0FF204610BD2DE9FE4F804681EA0300F5
:10025000C00F0C46009021F0004123F00045B8EBA0
:100260000200A94105D24046214690461C460B4655
:10027000024623F00040104347D0270DC7F30A0081
:10028000C3F30A510290401A019040286BDAC3F37D
:10029000130040F4801B0098924620B10023D2EB5B
:1002A000030A63EB0B0B01985946C0F1400250461C
:1002B00000F0DBF906460D4650465946019A00F01B
:1002C000F3F910EB08006141002487EA115284EA37
:1002D000E7731A4340D0009A62B3019A012A4FEAA9
:1002E000075215DC001B61EB02014FF0004202EAED
:1002F0000752CDE90042001C41F5801132462B46E1
:1003000000F02AFA03B0BDE8F08F40462146F9E735
:10031000001B61EB0201001C41F5801300185B41DA
:100320002018A2F5001747EB030140EAD570B61973
:100330006D4111E06D084FEA360645EAC0754FEA97
:100340000752001B61EB0201001C41F580114908B6
:100350004FEA30000019514132462B4603B0BDE848
:10036000F04F00F0EAB90098012240000023D0EBE2
:10037000020263EBE073009821464FEAE074B8EBA9
:10038000000061EB0401E9E783F000435BE781F0E3
:10039000004158E72DE9FE4F81EA030404F00044D0
:1003A00021F0004100944FF0000B23F0004350EA8D
:1003B00001045ED052EA03045BD0C3F30A54C1F3D4
:1003C0000A552C44A4F2F3340194A0FB0254C1F367
:1003D000130141F48011C3F3130343F4801301FBB1
:1003E000024400FB034E840A970A44EA815447EA18
:1003F0008357A4FB076802958D0A05FB07854FEA22
:10040000932C04FB0C542705029D4FEA065847EA3B
:100410001637B5EB08056EEB070C870E920E47EA10
:10042000811742EA8312A7FB0201B6EB0B0164EBD2
:1004300000042B0D43EA0C335E1844EB1C50DA46E3
:100440005146E7FB0201C5F313044FEA0B3343EABD
:1004500014534FEA0432019C43EA0603A4F10C044E
:100460000294009CCDE900B400F076F903B0BDE839
:10047000F08F00200146F9E72DE9F04D81EA0304F1
:1004800004F0004B21F0004514464FF0000A23F021
:10049000004150EA050220D054EA01021DD0C5F304
:1004A0000A570246C5F31303C1F31300C1F30A56FA
:1004B00040F4801543F48013A7EB0608101BD646C2
:1004C00008F2FD3873EB050002D308F1010801E0E2
:1004D00092185B41B8F1000F03DA00200146BDE835
:1004E000F08D00204FF48011064684460EE0171B65
:1004F00073EB050705D3121B63EB050306434CEAB8
:10050000010C49084FEA300092185B4150EA01079C
:10051000EDD152EA030012D082EA040083EA050119
:10052000084305D0101BAB4106D20122002306E090
:1005300000224FF0004302E06FF0010253101AEB6B
:1005400006004CEB085110EB0A0041EB0B01BDE833
:10055000F04D00F0F2B80EB540F2334102910021A7
:10056000CDE900110A460B4600F0F6F803B000BDD5
:1005700070B5C1F30A5201F000450024C1F3130124
:1005800040F2FF3341F480119A4201DA002070BD3D
:1005900040F233439A42A2F2334203DC524200F06B
:1005A00073F800E090402C43F1D0404270BDC1F39D
:1005B0000A5210B5C1F3130140F2FF3341F4801128
:1005C0009A4201DA002010BD40F233439A42A2F26F
:1005D000334203DC524200F057F810BD904010BD8A
:1005E00000F0004230F000400AD0C10D01F560710A
:1005F000C0F3160042EA0151C20840071143704798
:1006000000200146704701F0004330B421F0004162
:1006100050EA010206D00A0DA2F56072C1F313017F
:10062000002A02DC30BC00207047440F44EAC104B9
:10063000C100E01830BC00EBC25000F047B830B544
:100640000B46014600202022012409E021FA02F590
:100650009D4205D303FA02F5491B04FA02F528442A
:10066000151EA2F10102F1DC30BD202A04DB203A84
:1006700000FA02F1002070479140C2F1200320FAF5
:1006800003F3194390407047202A04DB203A21FAF3
:1006900002F00021704721FA02F3D040C2F120029B
:1006A0009140084319467047202A06DBCB17203AB1
:1006B00041FA02F043EAE07306E041FA02F3D04067
:1006C000C2F1200291400843194670470029A8BF93
:1006D0007047401C490008BF20F00100704710B46B
:1006E000B0FA80FC00FA0CF050EA010404BF10BC20
:1006F000704749B1CCF1200421FA04F411FA0CF14D
:1007000018BF012121430843A3EB0C01CB1D4FEA85
:1007100000614FEA102042BF002010BC704700EB80
:10072000C35010440029A4BF10BC7047401C4900AE
:1007300008BF20F0010010BC704710B5141E73F103
:10074000000408DA401C41F1000192185B411A4391
:1007500001D120F0010010BD2DE9F04D92469B46DD
:1007600011B1B1FA81F202E0B0FA80F22032904683
:10077000FFF77BFF04460F4640EA0A0041EA0B01FF
:1007800053465A46084313D0114653EA010019D084
:10079000C8F140025046FFF777FF05460E46504627
:1007A00059464246FFF761FF084305D0012004E0A7
:1007B00020463946BDE8F08D0020054346EAE07644
:1007C0002C4337430A986305E40AA0EB0800002293
:1007D000FD0A44EA47540A3002D500200146E9E701
:1007E000010510196941DDE9084500196941BDE8B5
:1007F000F04DA2E770B521F0004303430CD0C1F3E4
:100800000A550024D5EB040564EB0403D617AD1A92
:10081000B34102DB0020014670BD201841EB0251BC
:1008200070BD0EB5C10F80EAE0700844CA07002110
:1008300040F233438DE80E000A460B46FFF78CFF6B
:1008400003B000BD30B5041E71F1000404DB4FF0AD
:100850000044404264EB0101141E73F1000405DB07
:100860001C464FF00043524263EB0403994208BF19
:10087000904230BD064C074D06E0E06840F00103B1
:1008800094E8070098471034AC42F6D3FFF780FC99
:10089000C8370008E83700082DE9F04D00231A4654
:1008A0001B1A8A4103DB00200146BDE8F08DC1F32D
:1008B0000A52C1F3130141F480154FF0000BD10728
:1008C00002D100186D41521E0027044640F2FF116C
:1008D000384601EB620A3E468046024600204FF44D
:1008E0008011FFF7D1FEC2197141BB1846EB010020
:1008F000B4EB030C75EB000C04D3E41A65EB0005B4
:1009000017460E46241908F101006D41804634282F
:10091000E3DDF91946EB0600091BA84103D24FF0AD
:10092000FF32134601E0002213461BEB070046EBA3
:100930000A51BDE8F04DFFF700BF000030B52C486C
:1009400087B00021026842F002020260026802F0F1
:1009500002020592026842F004020260026802F09C
:1009600004020592026842F008020260026802F086
:1009700008020592026842F0400202600068012409
:1009800000F0400005904FF44040CDE90004039191
:100990006946184800F096F94020CDE90004032587
:1009A00069460395144800F08DF94FF46050CDE985
:1009B000000469460395114800F084F94FF4FE7075
:1009C000CDE90004694603950D4800F07BF900F07D
:1009D0008BFF00F06BFF0B4A0321012000F042F86F
:1009E000084A0221921E084600F03CF807B030BDCC
:1009F000303802400004024000080240000C02406F
:100A0000001802400A00002038B5002200920C466F
:100A10008DF800006A460121002000F023F82046EE
:100A200001F00BFB38BD38B5002200920C468DF862
:100A300000006A460121002000F014F8204601F071
:100A40000DFB38BD38B5002200920C468DF8000031
:100A50006A460121002000F005F8204601F024FB41
:100A600038BD00002DE9F0472D4D914688460446DB
:100A7000002632464021284600F00CFA00221021C0
:100A8000284600F007FA00224021284600F002FA2A
:100A9000200601D5012200E000222021284600F096
:100AA000F9F901224021284600F0F4F96006761C8D
:100AB000040EF6B2082EE6D300224021284600F0AC
:100AC000E9F900262F4622E019F8065000240022FA
:100AD0004021384600F0DEF9280601D5012200E069
:100AE00000222021384600F0D5F901224021384665
:100AF00000F0D0F96806641C050EE4B2082CE6D3B9
:100B000000224021384600F0C5F9761CF6B2464571
:100B1000DAD33846BDE8F0470122102100F0BAB917
:100B200000180240FEE7704740F2712319463F2249
:100B3000521E1204120CFBD1491E0904090CF6D1F5
:100B4000401E10F0FF00F1D17047704770B5437937
:100B5000012B1AD0012646710223037105682C6807
:100B600040F6FE7393409C43D1E900310B43934020
:100B700023432B6001680B68C0249440A3430B609F
:100B8000067100214171084670BD022070BD70B52C
:100B9000040003D02079002510B105E0012070BDCC
:100BA0006571204600F008F80220207125610120BF
:100BB0002071002070BD000010B586B004461421DD
:100BC0006846FFF735FB1149206888421CD1104860
:100BD0000021026842F000520260006800F00050FC
:100BE00005900B481038026842F00102026000686C
:100BF00000F001000590302000900320CDE90101B4
:100C00006946044800F05EF806B010BD007400406C
:100C1000403802400000024018B5046800940068A3
:100C2000104421B1143000900360002018BD08303A
:100C3000F9E730B54279012A16D001224271022328
:100C4000037103681D6802FA01F425431D60002941
:100C500001680B680AD00C6803F4802304F4601464
:100C6000B3F5802F0FD015E0022030BD0C6803F0E3
:100C7000040304F03804042B0CD1382C0AD14B683F
:100C800043F0010305E0B4F5601F03D14B6843F066
:100C900002034B60027100214171084630BD90F89B
:100CA0003510022903D080214165012070470521BC
:100CB00080F835100068016821F001010160002012
:100CC000704700002DE9F84F00224FF0010803257E
:100CD0004FF00F0E0B6808FA02F42340A3426ED1C6
:100CE0004E68012E05D0022E03D0112E01D0122EF7
:100CF00012D186684FEA420C05FA0CF7BE43CF6862
:100D000007FA0CF7374387604668A6430C79C4F3AB
:100D10000014944034434460C668570005FA07FC49
:100D20008C6826EA0C06BC403443C4604C68022C34
:100D300001D0122C13D1D40800EB8404A346D4F8BC
:100D4000209054074FEAD46A0EFA0AF629EA0609F7
:100D50000E6906FA0AF646EA0906CBF8206006682C
:100D60000C7926EA0C0604F00304BC40344304600A
:100D70004C68E40065D5364C266846F4804626600B
:100D8000246822F0030604F480440094314C344477
:100D9000A446D4F808489607370F0EFA07F6B4436E
:100DA0002D4EB04201D1002624E02C4EB04201D19C
:100DB00001261FE02A4EB04202D102261AE040E08E
:100DC000284EB04201D1032614E0274EB04201D193
:100DD00004260FE0254EB04201D105260AE0244E3C
:100DE000B04201D1062605E0224EB04201D10726CD
:100DF00000E00826BE402643CCF808681E4E346842
:100E00004F689C43FF0300D51C4334601A4C241DDB
:100E100026684F689E43BF0300D51E432660164ECA
:100E2000083634684F689C43FF0200D51C43346089
:100E3000114E0C3634684F689C43BF0200D51C43EA
:100E40003460521C102AFFF445AFBDE8F88F000053
:100E500044380240003001400000024000040240DB
:100E600000080240000C0240001002400014024042
:100E700000180240001C0240003C0140006908408C
:100E800000D001207047426931EA020200D1090412
:100E9000816170470AB1816170470904FBE7000076
:100EA00001488068704700002C00002002488168DB
:100EB00002781144816070472C0000200B4810B567
:100EC000016841F400710160016841F480610160D2
:100ED000016841F480710160032000F06FF8002088
:100EE00000F006F800F024F8002010BD003C02409D
:100EF00070B50D4D04464FF47A712878B1FBF0F0CF
:100F00000A490968B1FBF0F000F002FB48B9102C67
:100F100007D200222146501E00F030F800206C60FD
:100F200070BD012070BD00002C00002038000020A2
:100F30000A4808B5016841F480410160006800F486
:100F4000804000900548001F016841F08051016019
:100F5000006800F08050009008BD00004438024056
:100F6000002809DB00F01F020121914040098000A8
:100F700000F1E020C0F8001170470000F0B40E4B03
:100F80001B680C46C3F30223C3F10705042D00D9E7
:100F90000425191D072901D2002300E0DB1E0126CC
:100FA00006FA05F1491E214099409E40761E1640E2
:100FB0003143F0BC01F0AEB80CED00E0064900F0A2
:100FC000070208684FF6FF03184040EA0220034A70
:100FD00010430860704700000CED00E00000FA05C7
:100FE0002DE9F0470E46050065D0DFF81481D8F8EA
:100FF0000000F7B200F00F00B04207D288F800708E
:10100000D8F8000000F00F00B04254D128683D4CE1
:10101000810712D5400703D5206840F4E0502060D6
:101020002878000703D5206840F4604020602068DD
:10103000A96820F0F000084320602878C0072DD070
:10104000304968680839012812D0022813D00328D3
:1010500011D00968890700292DDA216821F00301E0
:1010600001432160FFF71CFF814641F2883A0EE000
:1010700009688903EFE709688901ECE7FFF710FFCA
:10108000A0EB0901514502D90320BDE8F087206893
:10109000696800F00C00B0EB810FEFD1D8F80010B8
:1010A000404601F00F01B14207D90770006800F017
:1010B0000F00B04201D00120E7E72878400705D5AE
:1010C0002068E96820F4E050084320602878000791
:1010D00006D52068296920F4604040EAC1002060FC
:1010E00000F038F82168084AC1F30311515CC84088
:1010F0000649086006480068FFF7FAFE0020C4E7CA
:10110000003C0240083802401C370008380000202C
:10111000300000200448054900680968044AC1F30A
:101120008221515CC84070473800002008380240D6
:101130002C3700080448054900680968044AC1F3CF
:101140004231515CC84070473800002008380240E6
:101150002C370008154810B5006810F00C02144830
:1011600013D04110042A0FD0082A0ED10F4C241F8F
:101170002268236802F03F025B0207D52068C0F3B3
:101180008810A0FB010106E0084610BD2168C1F3EC
:101190008811A1FB00010023FFF712F82168C1F3B9
:1011A0000141491C4900B0FBF1F010BD0838024074
:1011B0000024F4002DE9F84F04006ED02078DFF809
:1011C0003C93C007A9F104054AD009F10400016865
:1011D000C1F38101012908D00068C0F38100022811
:1011E0000AD1D9F80000400206D52868800337D517
:1011F00060680028E1D033E06068B0F5803F10D02F
:10120000B0F5A02F286810D020F48030286028681E
:1012100020F4802028606068A8B1FFF741FE0646F0
:101220000DE0286840F48030F4E740F48020286026
:10123000F7E700BFFFF734FE801B642873D82868E7
:101240008003F7D50CE0FFF72BFE064605E000BF54
:10125000FFF726FE801B6428F0D828688003F7D4A7
:101260002078DFF89C8280074FF0000A3ED5A34823
:10127000001D016811F00C0F08D00068C0F3810058
:1012800002280BD1D9F80000400207D42868800753
:1012900016D5E068012800D112E02BE1E068B8B172
:1012A0000120C8F80000FFF7FBFD064605E000BF7F
:1012B000FFF7F6FD801B0228C0D828688007F7D505
:1012C0002868216920F0F80040EAC10028600DE09C
:1012D000C8F800A0FFF7E4FD064604E0FFF7E0FDD4
:1012E000801B02281FD828688007F7D420780007C1
:1012F00022D5824E83486169703671B10121016047
:10130000FFF7CEFD074604E0FFF7CAFDC01B022829
:1013100009D830688007F7D50EE0C0F800A0FFF7C5
:10132000BFFD074605E082E0FFF7BAFDC01B0228BB
:101330007DD830688007F7D42078400768D5DFF87B
:10134000BCB100270BF13C0BDBF80000C0000BD454
:10135000DBF8001041F08051CBF80010DBF8000002
:10136000012700F080500090674E3068C00510D40F
:10137000306840F480703060FFF792FD009005E027
:10138000FFF78EFD0099401A022850D83068C0053A
:10139000F6D55A4EA0686C3601280FD00528306863
:1013A00010D020F001003060306820F00400306080
:1013B000A068B8B1FFF774FD00900FE0306840F00E
:1013C0000100F4E740F004003060F7E7FFF768FD44
:1013D0000099411A41F28830814266D8306880070E
:1013E000F4D50EE0FFF75CFD009007E0FFF758FD35
:1013F0000099411A41F28830814256D830688007FE
:10140000F4D42FB1DBF8001021F08051CBF800109C
:10141000A069C8B33949091D0968C1F381010229CE
:101420004AD00228504607D0C8F8600000E03CE0EF
:10143000FFF736FD04463BE04746C8F86000FFF77B
:101440002FFD064605E000BFFFF72AFD801B02289E
:101450002BD828688001F7D4D4E907010843A16A92
:101460002A4A490802EB0141626A41EA82110843B3
:1014700094F82C1040EA0161C9F800100120386688
:10148000FFF70EFD044606E036E000BFFFF708FD5B
:10149000001B022809D828688001F7D52CE000BF7E
:1014A000FFF7FEFC001B022802D90320BDE8F88FDD
:1014B00028688001F4D41FE00128F7D0D9F8000093
:1014C000E26900F48001914214D1226A00F03F01E8
:1014D00091420FD147F6C071626A0140914209D131
:1014E000A26A00F44031914204D1E16A00F07060D8
:1014F000884201D00120D9E70020D7E70438024014
:1015000000004742800E4742007000400000FFFF8D
:1015100010B5401EB0F1807F01D3012010BD4FF007
:10152000E02460610F21601700F0F4FD0020A0614D
:1015300007202061002010BD7047000070B50268D0
:1015400004461068D168536910F00F0F52D003F0B1
:10155000010501F490762E435FD0C20705D0CA057D
:1015600003D5E26B42F00102E263420705D5DA07D8
:1015700003D0E26B42F00202E263820705D5DA078C
:1015800003D0E26B42F00402E263020707D501F0E8
:1015900020022A4303D0E26B42F00802E263E26BCE
:1015A000002A33D0800604D5880602D5204600F0F4
:1015B000F9FB20684069E16BC0F38010090700D493
:1015C00028B3204600F0E0FB2068416949061AD59F
:1015D000416921F040014161606BA0B11B49016587
:1015E000606BFFF75CFB002810D0606B016DBDE8FD
:1015F00070400847830610D58B060ED52046BDE8FF
:10160000704000F0CFBB2046FFF796FF70BD20462C
:10161000FFF792FF0020E06370BD030606D50B06BE
:1016200004D52046BDE8704000F09CBC4006F3D5D0
:101630004806F1D5D168204621F04001D160202133
:1016400084F8391000F013F970BD0000791D00080E
:1016500070B5040004D094F83900002510B106E0FC
:10166000012070BD84F83850204600F023F8242073
:1016700084F839002068C16821F40051C160204617
:1016800000F0DCFB2068016921F4904101612068D1
:10169000416921F02A0141612068C16841F400518B
:1016A000C160E563202084F8390084F83A00002006
:1016B00070BD000010B586B0044614216846FEF7E0
:1016C000B7FD18492068884229D1174800210268CF
:1016D00042F010020260006800F01000059012480D
:1016E0001438026842F001020260006800F0010054
:1016F00005904FF4C06000900220CDE90101032065
:1017000003900720049069460848FFF7DBFA00229F
:1017100001212520FFF732FC2520FFF721FC06B030
:1017200010BD00000010014044380240000002409B
:1017300090F83A30202B22D1F9B1F2B190F838303C
:10174000012B1CD081628285C2850021C1632222C7
:1017500080F83A2080F838100168CA6842F4807234
:10176000CA6001684A6942F001024A610068C168C2
:1017700041F02001C1600020704701207047022025
:101780007047000010B50068074988420AD1074C2D
:101790006078002806D00222A11C0548FFF7C8FF88
:1017A0000020607010BD00000010014028000020E3
:1017B000540000202DE9F843044690F839001F46F4
:1017C00016460D46202850D1B5B1AEB194F8380078
:1017D00001284AD0012084F838004FF00008C4F8EE
:1017E0003C80212084F83900FFF75AFBA68481460B
:1017F000E68484F8388026E00120BDE8F883E08C98
:10180000401EE084A0684B46B0F5805F4FF00002B8
:101810004FF080012046009703D000F0D4FBE8B9D8
:101820000DE000F0D0FBC8B928882168C0F308009B
:101830004860206908B16D1C05E0AD1C03E021681B
:1018400015F8010B4860E08C0028D8D14B460022E7
:1018500040212046009700F0B6FB08B10320CCE7FA
:10186000202084F839000020C7E70220C5E7704730
:10187000FEE7000010B50C4C002204212046FFF7C3
:1018800009FB022001F0EEFC012204212046FFF7B3
:1018900001FB042001F0E6FC20460022BDE81040D8
:1018A0000421FFF7F7BA00000018024070B50D4D93
:1018B0004FF48054002221462846FFF7EBFA01201E
:1018C00001F0D0FC012221462846FFF7E3FA1E2052
:1018D00001F0C8FC21462846BDE870400022FFF711
:1018E000D9BA0000000C024070B5224D00224FF41E
:1018F00000412846FFF7CEFA1F4C01221021204656
:10190000FFF7C8FA002240212046FFF7C3FA002261
:1019100004212046FFF7BEFA00224FF480412846FA
:10192000FFF7B8FA154D0022E1142846FFF7B2FA86
:1019300000224FF400512846FFF7ACFA002208219C
:101940002046FFF7A7FA002220212046FFF7A2FA3F
:10195000002280212046FFF79DFA002240210848FE
:10196000FFF798FA0022A1152046BDE87040FFF766
:1019700091BA00000004024000180240000C02402E
:101980000008024030B587B014216846FEF750FCCD
:1019900013480024016841F010010160016801F062
:1019A00010010591016841F02001016000680125E6
:1019B00000F02000059018208DE8310069460948A4
:1019C000FFF780F94FF4C060CDE900050320CDE9B1
:1019D000024069460448FFF775F907B030BD0000C2
:1019E0003038024000100240001402401CB50024B0
:1019F000104900940E48019408600846FFF7C7F8A4
:101A000008B1FFF7A2F80094002269460948019442
:101A1000FFF79CF808B1FFF798F8102269460548CF
:101A2000FFF794F8002801D0FFF78FF81CBD0000E5
:101A300000740040940000200C4810B50A49016071
:101A40004FF4E1314160002181600C22C160C0E9A6
:101A500004128161C161FFF7FBFD002803D0BDE8DE
:101A60001040FFF772B810BD001001405400002074
:101A7000FEE770477047704706484FF47A7101607F
:101A8000054941601E2101720021417241810173AB
:101A90004173704744000020005A6202FFF706BA03
:101AA00030B593B030216846FEF7C2FB14210CA874
:101AB000FEF7BEFB19480025016841F08051016026
:101AC000006800F0805011901548016841F4804191
:101AD00001600068022400F4804011900120009011
:101AE000000401908001CDE9064008AA0420A82145
:101AF00082E813000B906846FFF75CFB0CA90F20EF
:101B000081E831004FF4A0500F90E00210900521C1
:101B10000CA8FFF765FA13B030BD00004038024052
:101B2000007000400548016841F4700101600349FC
:101B30004FF00060803908607047000088ED00E0D9
:101B40002DE9F0475D4C6078002873D14FF0010A11
:101B5000A01C84F801A00278457800215848B03DC7
:101B600012B1012A65D166E0544A554B5A2692F8C3
:101B700000C01A7A88CBDFF84C91082D59D2DFE8E3
:101B800005F0040C141E2935434E4FF47A7164336A
:101B90008B4205D901604CA088E0643B642B02D3E2
:101BA00019460360F7E76421F4E7BCF1000F7FD02A
:101BB0000A325A2A01D8027209E0067207E0BCF123
:101BC000000F75D00A3A1E2AF5DA1E210172017A39
:101BD00042A06BE0464B07EB09029A4201D84260F3
:101BE00000E043604068B0FBF9F10BE03549494241
:101BF0007A1840498A4202D31146426000E04160AF
:101C0000B1FBF9F13CA051E0002A51D106723146F6
:101C100084F800A031A000F055FA3CA007E0002AAB
:101C200046D0017221702DA000F04CFA3DA000F0CA
:101C300049FA3DE040E0224C062D637B6289647ADC
:101C400036D2DFE805F0030D131E252CA41C142C3E
:101C500001D8447201E0142106E0417A37A025E062
:101C6000022C01D4A41EF4E74172F6E722B11E3221
:101C7000C82A09D9C82109E0322107E0418934A0E6
:101C800014E01E3A322A01DB4281F7E74181F5E791
:101C90001E33B42B01D8437306E0B42103E01E2B9E
:101CA00001D41E3BF7E74173417B2EA000F00AFAF6
:101CB000BDE8F04701F0ECBCBDE8F087280000204B
:101CC0004400002040420F0070616765302E6E3086
:101CD0002E76616C3D2564FFFFFF00007061676533
:101CE000302E6E312E76616C3D2564FFFFFF0000C3
:101CF000005A620280C3C90170616765302E6E327E
:101D00002E76616C3D2564FFFFFF00007061676502
:101D1000302E74322E7478743D22414D22FFFFFF25
:101D20000000000070616765302E74322E74787484
:101D30003D22435722FFFFFF0000000070616765EE
:101D4000312E6E302E76616C3D2564FFFFFF000062
:101D500070616765312E6E312E76616C3D2564FFB2
:101D6000FFFF000070616765312E6E322E76616C68
:101D70003D2564FFFFFF000010B5806B0021C18589
:101D8000C184FFF7D9FB10BD0168CA6822F49072C4
:101D9000CA6001684A6922F001024A61202180F884
:101DA0003A10704710B590F83A10222901D002205D
:101DB00010BD8168B1F5805F11D00169002901680B
:101DC0001FD0496801F07F03816A4A1C82620B7050
:101DD000C18D491E0904090CC18518D02BE0026988
:101DE000816A002A0268526805D0D2B20A80816AEC
:101DF000491C8162ECE7C2F308020A80816A891CEF
:101E0000F7E74A68816A4B1C83620A70E0E7016861
:101E1000CA6822F02002CA600168CA6822F480728F
:101E2000CA6001684A6922F001024A61202180F8F3
:101E30003A10FFF7A7FC002010BD00002DE9F0418B
:101E4000044600680169E26821F4405111430161D0
:101E50002169A068E2690843616911430843216868
:101E6000CA6849F20C639A430243CA602068416918
:101E7000A26921F4407111434161E0691927642589
:101E80003226B0F5004F354A354920684FF000083A
:101E900006D0884201D0904236D1FFF74BF935E0A9
:101EA000884201D0904202D1FFF744F901E0FFF7E8
:101EB00031F961684A18A0FB070148EB0803FEF7F7
:101EC0007FF90146B0FBF5F00201B1FBF5F06FF0D0
:101ED0001803584301EB800006EBC000B0FBF5F09F
:101EE00000F0F80002EB4002B1FBF5F0584301EBC3
:101EF000800006EBC000B0FBF5F000F007002168A1
:101F000010448860BDE8F081FFF704F961688B0F29
:101F10008A00A0FB0701FEF753F90146B0FBF5F07C
:101F20006FF01802504301EB800006EB0010B0FB8D
:101F3000F5F000F0F002B1FBF5F002EB0012B1FB9E
:101F4000F5F06FF01803584301EB800006EB00102A
:101F5000B0FBF5F000F00F00D1E7000000140140E5
:101F60000010014090F83910212901D0022070475B
:101F70008168B1F5805F016A0BD04A1C0262026879
:101F800009785160C18C491E0904090CC1840ED026
:101F900017E009880268C1F308015160016900294E
:101FA000016A02D0491C0162ECE7891CFBE7016869
:101FB000CA6822F08002CA600068C16841F040012E
:101FC000C160002070472DE9F041984617460E4643
:101FD0000446069D1DE0681C1BD02DB1FEF760FF76
:101FE000A0EB0800A84214D92068C16821F4D07180
:101FF000C1602068416921F001014161202084F81D
:10200000390084F83A00002084F838000320BDE845
:10201000F0812068006836EA000004D00020B84251
:10202000D9D00020F3E70120F9E700000148FFF7CD
:1020300085BA000054000020FEE708B5002140F4F6
:1020400080500091010A8DF801108DF802006A4657
:1020500003210620FEF706FD08BD000008B500219B
:102060000091FEF778FA41EC100B0E4890ED061B3C
:1020700051EC100B53EC112BFEF78CF9FEF797FA8D
:102080008DF80300010A8DF80210010C8DF8011083
:10209000000E8DF8000004216A460846FEF7E2FCB7
:1020A00008BD00000800002008B5002100918DF84F
:1020B0000100000A8DF800006A4602210520FEF7A3
:1020C000D1FC08BD0FB4054B10B503A9044A029812
:1020D00000F040FF10BC5DF814FB000089320008DE
:1020E0003C00002003B401984100009850EAC12050
:1020F00018BF04204A0D18BF40F0010040F2FF72E3
:10210000B2EB515F08BF40F00200012808BF052074
:1021100002B070470907090E002804DB00F1E02037
:1021200080F80014704700F00F0000F1E02080F804
:10213000141D7047000000002DE9F04D2DED040B3B
:102140002DED0E8B96B0DDE92550279CDDF890A093
:1021500025F0004624F00048BAF1000F14BF012119
:10216000002101EB4502FC4953184A1093422AD33F
:10217000002814BF0123002303EB44030B44F74959
:102180008B4220D358EA00019FEDF59B76D0DFF813
:10219000D8B35D4503D1BAF1000F05D188E0BAF19B
:1021A000000F08BF002100D0012101EB450111F50E
:1021B000001F08D8002814BF0121002101EB4401B1
:1021C00011F5001F0BD99DED261B9DED240B16B0BC
:1021D000BDEC0E8B04B0BDE8F04D00F069BE0027E9
:1021E000002DBCBFE149884521DAE1498845A8BFF7
:1021F00002271CDAC3451ADCDE4901EB28511429F9
:1022000008DDC1F1340220FA02F101FA02F2824241
:102210000DD108E058B9C1F1140228FA02F101FA0F
:1022200002F2424503D101F00101C1F1020756EA71
:102230000A0124D1002C22DA002D18BF022F01D070
:10224000012F0AD0022000F07FFE16B0BDEC0E8BED
:1022500004B0BDE8F04D00F013BE022000F074FEA3
:1022600000F00EFE51EC100B81F0004141EC100B20
:1022700016B0BDEC0E8B04B0BDE8F08D18E09FEDFC
:10228000BEAB9FEDBF8B002871D1B848804522D1ED
:1022900005F1804010F5801008BFBAF1000F07D09B
:1022A000B3450ADC002CA8BF9DED260BE0DA0DE05B
:1022B000B0EE490AF0EE690ADAE7002C06DA9DED85
:1022C000260B51EC100B81F000416FE0AE487844D2
:1022D00090ED000BCCE7D8454DD1002C48DA2EB15B
:1022E00086423AD1BAF1000F42D126E0BAF1000F8E
:1022F00013D0022000F028FE00F0F6FD8DED020B59
:102300009DED240B8DED000B10EE900A039961F307
:102310001E0003909DED020BAAE78DED02AB9DED33
:10232000240B1AEE901A10EE900A8DED000B61F35B
:102330001E0003909DED020B9AE78DED028B9DED43
:10234000240B18EE901A10EE900A8DED000B61F33D
:102350001E0003909DED020B8AE709DA9DED240B28
:1023600051EC190B53EC102BFEF786F81EE020E021
:102370009DED240B7CE786421BDAB4F1804F0DD033
:10238000A4F10050B0F1FF5013D1002D11DB9DEDF1
:10239000240B51EC100B01F08AF907E09DED240BA2
:1023A00053EC102B51EC100B00F0C2BC41EC100BA5
:1023B0005EE79DED240B51EC100B00F059FFBAF1D4
:1023C000000FCDE90E0142D19FED710B46B3A6F18E
:1023D000E040B0F17F600CD05E4538D1002D00DACE
:1023E000A7B3022F0CBF01204FF0FF30FEF719FA00
:1023F000DCE7002D01DD002C0DDA002D01DD002CC5
:102400001FDB002D16DA002C14DB012F08BF9FED17
:10241000620B3FF42DAFB0EE4A0AF0EE6A0A27E7EE
:10242000022F18BF002D0CD0012F0AD1002DFFF66E
:102430001FAF06E0002DB8BF002C08DA012F3FF4D3
:1024400017AFB0EE480AF0EE680A11E71BE0012072
:1024500000EBE57050EA070115D0791EB0EE498A0D
:10246000F0EE698A084308BF9FED4D8B4E4800256A
:10247000804570DD4D494E48884514DDB0420DDB86
:10248000002C19DB2FE0012000F05EFD16B0BDEC42
:102490000E8B04B0BDE8F04D00F016BDB34502DC74
:1024A000002C09DC1FE0864202DA002C1BDA03E074
:1024B0005E452BDD002C16DD022000F045FD00F00E
:1024C00013FD8DED020B53EC1A2B51EC180BFDF79D
:1024D00061FFCDE900010399019861F31E000390AB
:1024E0009DED020BC4E6022000F02EFD00F00CFD75
:1024F00010EE901A18EE900A8DED020B8DED008B08
:1025000061F31E0003909DED020BB1E69DED0E0BF5
:1025100053EC192B51EC100BFDF736FF9FED260BFA
:10252000CDE9080153EC102B9DED080B51EC100B7D
:10253000FDF730FF9FED221B53EC112BFDF727FF1A
:102540009DED081B53EC112BFDF724FF9FED1E1B87
:1025500053EC112B3CE08CE0FFFF1F00FFFF0F004E
:10256000000000000000F03F0000F03F0000F07F9E
:102570000000404301FCFFFF000000000000F07F6E
:102580000000000000000000EE1400000000000049
:102590000000000000000080000000000000F0FFCC
:1025A000000000000000F0BF0000E0410000F04328
:1025B000FFFFEF3F00000000000000000000D03FE0
:1025C000555555555555D53F000000000000E03FDA
:1025D000FDF7DDFE9DED080B41EC1A0B53EC102BC3
:1025E00051EC100BFDF7D6FE53EC1A2BFDF7D2FE83
:1025F00041EC1A0B9FEDFE0B53EC102B9DED080BDD
:1026000051EC100BFDF7C6FE41EC1B0B9FEDFA0BD6
:1026100051EC1A0B53EC102BFDF7BCFE41EC1A0BDE
:102620009FEDF70B53EC102B9DED080B51EC100BAD
:10263000FDF7B0FE53EC1A2BFDF7A6FE41EC1A0B8A
:1026400051EC1B0B53EC1A2BFDF7FDFD0690CDE969
:1026500006519DED060B53EC1B2B51EC100BFDF7B7
:1026600093FE53EC1A2BFDF792FE41EC100B00F099
:10267000A1B90020B6F5801F0EDA9FEDE30B53ECF5
:10268000102B9DED0E0B51EC100BFDF783FECDE9E9
:102690000E016FF034000E4600EB2650A0F2FF371B
:1026A000C6F31300DA4940F07F6646F04056884290
:1026B000D8BF002408DDD7498142C8BF012403DC0C
:1026C0000024A6F580167F1CD348784400EBC40094
:1026D0000F9690ED00CB9DED0E0B53EC1C2B51ECA7
:1026E000100BFDF751FE9DED0E0B41EC1B0B53EC57
:1026F0001C2B51EC100BFDF7A6FD41EC100B51EC1F
:10270000190B53EC102BFDF7B7FE41EC1D0B51ECF0
:102710001B0B53EC1D2BFDF73DFE41EC1A0BBF4884
:102720008DED10AB7844109590ED000B4FF00050FC
:1027300040EA660000EB84408DED080B00F50020B8
:1027400009909DED080B53EC1C2B51EC100BFDF781
:102750001BFE9DED0E1B53EC112BFDF718FE41ECFB
:10276000100B53EC102B9DED100B51EC100BFDF7E3
:1027700011FE9DED080B41EC1C0B53EC102B9DED55
:10278000100B51EC100BFDF705FE53EC1B2BFDF766
:10279000FEFD53EC1C2BFDF7F7FD53EC1D2BFDF755
:1027A000F9FD41EC1C0B53EC1A2B51EC1A0BFDF705
:1027B000F1FD41EC1B0B9A480621B0EE4B0AF0EEFE
:1027C0006B0A784400F0E0FAB0EE401AF0EE601ABE
:1027D000B0EE41DAF0EE61DA53EC1B2B51EC1B0B3F
:1027E000FDF7D8FD53EC1D2BFDF7D4FD9DED100B2F
:1027F00041EC1B0B53EC1A2B51EC100BFDF723FD96
:1028000053EC1C2BFDF7C6FD53EC1B2BFDF71BFDFA
:102810009DED100B41EC1B0B53EC102B51EC100BEE
:10282000FDF7B8FD41EC1D0B9FED7FEB53EC1E2B2C
:10283000FDF709FD53EC1B2BFDF705FD0890CDE9D5
:1028400008519DED080B53EC1E2B51EC100BFDF7BE
:102850009BFD53EC1D2BFDF797FD53EC1B2BFDF758
:1028600096FD9DED080B41EC1D0B53EC102B9DEDDF
:10287000100B51EC100BFDF78DFD41EC1B0B53ECD5
:102880001A2B51EC1D0BFDF785FD9DED080B41EC5E
:102890001A0B53EC102B51EC1C0BFDF77BFD53EC8A
:1028A0001A2BFDF7D0FC41EC1A0B51EC1B0B53EC2F
:1028B0001A2BFDF7C8FC0C90CDE90C519DED0C0BCB
:1028C00053EC1B2B51EC100BFDF75EFD53EC1A2B58
:1028D000FDF75DFD41EC1B0B9FED550B53EC102BF1
:1028E0009DED0C0B51EC100BFDF754FD41EC1A0B58
:1028F0009FED510B51EC1B0B53EC102BFDF74AFDD8
:1029000041EC1B0B9FED4E0B53EC102B9DED0C0B74
:1029100051EC100BFDF73EFD53EC1B2BFDF793FC28
:1029200041EC100B4848784400EBC40090ED001BCC
:1029300051EC100B53EC112BFDF785FC41EC1B0BFC
:102940003846FDF76EFFCDE9080153EC1B2B51EC27
:102950001A0BFDF778FC41EC100B3C48784400EB77
:10296000C40090ED00CB51EC100B53EC1C2BFDF789
:102970006AFC9DED081B53EC112BFDF764FC0690DF
:10298000CDE906519DED080B53EC102B9DED060B88
:1029900051EC100BFDF7F8FC53EC1C2BFDF7F4FC8D
:1029A00053EC1A2BFDF7F0FC53EC1B2BFDF7EFFC5F
:1029B00041EC100B9DED261B53EC102B8DED001BF5
:1029C00000959DED260B51EC100BFDF7E3FC9DED02
:1029D000000B41EC1A0B53EC102B9DED260B51EC28
:1029E000100BFDF7D1FC9DED061B53EC112B2FE0D6
:1029F000000000604715F73FFE822B654715F73F43
:102A000044DF5DF80BAE543E000000000000404380
:102A10008E9803007AB60B006A1000009810000030
:102A2000A20F0000000000000000000000000840AD
:102A3000000000E009C7EE3FFD033ADC09C7EE3FA6
:102A4000F5015B14E02F3EBE2E0E0000E80D0000E5
:102A5000FDF7A0FC53EC1A2BFDF7F5FB9DED060BE3
:102A600041EC1A0B53EC102B9DED000B51EC100BAD
:102A7000FDF790FCCDE90C019DED0C0B51EC1A0B10
:102A800053EC102BFDF7DFFBCDE902010C46AA4900
:102A90008C422FDB611A084318D19DED0C0B53ECCF
:102AA000102B9DED020B51EC100BFDF76DFC41EC72
:102AB0001B0B9FEDA30B51EC1A0B53EC102BFDF7E6
:102AC000C2FB53EC1B2BFDF7BDFE2DD2022000F004
:102AD0003BFA00F009FA10EE901A18EE900A8DED0C
:102AE000020B8DED008B61F31E0003909DED020B38
:102AF000FFF7BEBB944A24F00041914214D393499E
:102B0000214408437FF4EFAC9DED0C0B53EC102BEC
:102B10009DED020B51EC100BFDF736FC53EC1A2B1C
:102B2000FDF790FE7FF6DFAC24F000408849894A2B
:102B3000002601EB205182422BDA481C4FF4801111
:102B400021FA00F02044844AC0F30A517A44A1F2E9
:102B5000FF3192ED000B814A8DED080BCA4020EA4F
:102B60000202C0F3130040F48010C1F1140120FAF6
:102B700001F60992002CB8BF76429DED080B53EC8C
:102B8000102B9DED0C0B51EC100BFDF7FDFBCDE96F
:102B90000C019DED0C0B51EC1A0B53EC102BFDF7B7
:102BA00052FB9FED6F0B0890CDE9085153EC102BB1
:102BB0009DED080B51EC100BFDF7ECFB41EC1B0BF2
:102BC0009FED690B53EC102B9DED080B51EC100B96
:102BD000FDF7E0FB9DED0C0B41EC1C0B53EC102BB7
:102BE0009DED080B51EC100BFDF7CEFB53EC1A2BAF
:102BF000FDF7CDFB9FED5E1B53EC112BFDF7CAFBE0
:102C000053EC1C2BFDF71FFB41EC1A0B51EC1B0B7B
:102C100053EC1A2BFDF717FBCDE902019DED020BDA
:102C200053EC1B2B51EC100BFDF7AEFB53EC1A2BA6
:102C3000FDF7ADFB9DED020B41EC1A0B53EC102B95
:102C400051EC100BFDF7A6FBCDE908014A489DEDBC
:102C5000080B0521784400F097F89DED081B51EC16
:102C6000100B53EC112BFDF795FB9DED021B53EC64
:102C7000112BFDF78CFBCDE906019DED020B53EC0A
:102C80001A2B51EC100BFDF785FB53EC1A2BFDF7BB
:102C9000DAFA9FED3B0B41EC1A0B53EC102B9DED38
:102CA000060B51EC100BFDF76FFB9DED060B41EC95
:102CB0001B0B53EC102B9DED020B51EC100BFDF791
:102CC00069FB53EC1B2BFDF7D7FB53EC1A2BFDF7DD
:102CD0005BFB9DED021B53EC112BFDF755FB53ECF9
:102CE000192BFDF754FBCDE9020101EB065001154C
:102CF0000029C8BF039015DC9DED020B324651EC54
:102D0000100BFDF777FDFFF7EDF9042808BF00F081
:102D1000FBF832469DED020B51EC100BFDF76AFDFE
:102D2000CDE902019DED020B51EC180B53EC102B79
:102D3000FDF730FBFFF73ABB0000904000000000B9
:102D4000FE822B654715973C00CC904000346F3FC6
:102D500001FCFFFF0000E03F700C0000FFFF0F00D0
:102D600000000000432EE63F396CA80C615C20BED9
:102D7000EF39FAFE422EE63F400B00000000000053
:102D8000000000000000004070B504462DED028BED
:102D90004D1E00EBC500B0EE408AF0EE608A90ED6B
:102DA000000B35F0060017D053EC182B51EC100B2C
:102DB000FDF7F0FA41EC100B6D1E04EBC50090ED31
:102DC000001B51EC100B53EC112BFDF73CFA41ECBE
:102DD000100B35F00600E7D1022D36D0042D1CD0A3
:102DE000062D1CBFBDEC028B70BD53EC182B51ECB3
:102DF000100BFDF7CFFA94ED0A1B53EC112BFDF7E6
:102E000022FA53EC182BFDF7C5FA94ED081B53EC8E
:102E1000112BFDF718FA41EC100B53EC182B51EC69
:102E2000100BFDF7B7FA94ED061B53EC112BFDF7D1
:102E30000AFA53EC182BFDF7ADFA94ED040B53ECA2
:102E4000102BFDF700FA41EC100B53EC182B51EC52
:102E5000100BFDF79FFA94ED021B53EC112BFDF7BD
:102E6000F2F953EC182BFDF795FA94ED001B53EC97
:102E7000112BFDF7E8F9BDEC028B41EC100B70BD96
:102E80009FED070B10B553EC102B9FED070B51EC8A
:102E9000100BFDF7F1FA41EC100B10BD0000000023
:102EA0000000000000000000000000000000F03FF3
:102EB00010B553EC112B51EC100BFDF7C4F941EC9C
:102EC000100B10BD000000009FED050B10B553EC7A
:102ED000102B51EC100BFDF7CFFA41EC100B10BD8D
:102EE00000000000000000009FED050B10B553EC42
:102EF000102B51EC100BFDF74DFA41EC100B10BDEF
:102F000000000000000000709FED050B10B553ECB1
:102F1000102B51EC100BFDF73DFA41EC100B10BDDE
:102F2000000000000000001002E008C8121F08C1E5
:102F3000002AFAD170477047002001E001C1121F3A
:102F4000002AFBD17047000001490860704700006B
:102F5000400000202DE9FF4F89B09B460446002524
:102F600006E025280BD05A460B999047641C6D1C2F
:102F700020780028F5D10DB02846BDE8F08F002755
:102F8000B8460122474900E0074314F8013F203BBF
:102F900002FA03F00842F7D120782E2819D114F84C
:102FA000010F47F004072A280ED06FF02F02207877
:102FB000A0F1300109290CD808EB880102EB41018E
:102FC00000EB0108641CF2E70A98641C50F8048BBB
:102FD0000A9020780028CED0642808D0692806D02E
:102FE00075281ED05A460B9990476D1C58E00A99D7
:102FF0004FF00A0901C90A91002802DA40422D2146
:1030000002E0390504D52B218DF82010012103E0C1
:10301000F90704D02021F7E78A4608AE0DE0002129
:10302000FAE70A994FF00A0901C90A91F7E74946F8
:10303000FDF705FB303106F8011D0028F7D1ADEB97
:10304000060000F12009780701D44FF00108C845B7
:1030500002DDA8EB090000E000208046002706E022
:1030600008A85A46C05D0B9990476D1C7F1C5745B8
:10307000F6DB04E030205A460B9990476D1CB8F1FE
:103080000001A8F10108F5DC05E016F8010B5A462D
:103090000B9990476D1CB9F10001A9F10109F4DC0D
:1030A000641C65E70928010070B5464C46482DEDC3
:1030B000028B6168461A3046FDF74DFA9FED431BBF
:1030C00053EC112BFDF766F99FED421B53EC112BCE
:1030D000FDF7D2F99FED418B53EC182BFDF757F913
:1030E00053EC182BFDF7C8F9FDF78DFA3D4DA8609C
:1030F0003D48B6FBF0F0FDF72EFA41EC110B9FEDC9
:103100003B0BFFF719F820686421C0F57A70B0FB1B
:10311000F1F0B0EE408AF0EE608AFDF71CFA41EC67
:10312000110B9FED340BFFF707F89FED341B51ECAB
:10313000100B53EC112BFDF72DF953EC182BFDF769
:1031400029F9FDF760FAE860607AFDF704FA9FED6F
:103150002D1B53EC112BFDF78FF941EC110B9FED5B
:103160002B0BFEF7E9FF51EC100BFDF74CFA00EECC
:10317000100A85ED040AD4ED000A95ED021AF8EE66
:10318000600A60EE810A20EE800ABCEEC00A10EEF2
:10319000100A81B21020FDF737FC94ED000AD5ED3E
:1031A000030AB8EE400ABDEC028BBDE8704020EE89
:1031B000200ABCEEC00A10EE100A81B22020FDF7F2
:1031C00023BC000044000020005A62029A99999999
:1031D0009999F93F0000000080842E410000000012
:1031E000000059400800002040420F00D7A3703D66
:1031F0000AD7EF3FD9CEF753E3A5EF3FB6F3FDD49F
:1032000078E9EE3F00000000000034C0000000003C
:103210000000244010B5054C10206168FDF703FC48
:103220006168BDE810402020FDF7FDBB4400002090
:1032300010B50022A02311460948FDF7EDFCA0239C
:10324000002210210648FDF7E7FC00210448FDF7A5
:10325000F0FCBDE8104010210148FDF7EABC000079
:103260009400002000EB40008000401EFDD270471B
:1032700082B0CDE9000121F0004001909DED000BEE
:1032800002B051EC100B704713B54FF6FF730122DB
:1032900069460248FEF78EFA00981CBD54000020D3
:1032A00010B5FDF70BFEFEF7FBFBFEF76BFBFEF721
:1032B000C3FBFEF79BFBFFF7BBFFC820FDF734FC09
:1032C000FDF73CFBBDE81040FEF7D6BB2DE9F04111
:1032D00034482DED028B0168334C6268891A32291B
:1032E0005CD30068606000F06BF8207062782F4F4C
:1032F00020EA020142408243A170E2702C4D9FED12
:103300002D8B2E4E6070012920D149023846FDF7E1
:10331000BAFD2868FDF764F953EC182BFCF793FF0E
:10332000FDF771F900EE100A85ED000AD6ED000AEE
:10333000F8EE600A20EE800ABCEEC00A10EE100A19
:1033400081B22020FDF760FBFEF794FAA0780228F6
:1033500024D141023846FDF796FD2868FDF740F973
:1033600053EC182BFDF710F8FDF74DF900EE100A9D
:1033700085ED000AD6ED000AF8EE600A20EE800A1C
:10338000BCEEC00A10EE100A81B22020FDF73CFB13
:10339000BDEC028BBDE8F041FEF76CBABDEC028BD0
:1033A000BDE8F0813400002000000020001402403D
:1033B000140000207B14AE47E17A843F44000020D3
:1033C00010B5084C08212046FDF758FD30B11021FA
:1033D0002046FDF753FD18B1002010BD012010BD9F
:1033E000022010BD00100240FFF75AFF00F050F914
:1033F00000F0E0F8022205490548FEF799F900BF00
:10340000FEF79EFBFFF762FFFAE700002A000020AC
:103410005400002010B5114C2DED028B207AFDF7E1
:103420009AF89FED0F8B53EC182BFCF7B3FFFDF7C9
:10343000BEF881B24020FDF7E7FA207AFDF78BF85D
:1034400053EC182BFCF7A6FFFDF7B1F8BDEC028B8F
:1034500081B2BDE810408020FDF7D6BA44000020BC
:10346000666666666666264010B5054C40202146B5
:10347000FDF7D9FA2146BDE810408020FDF7D3BA08
:1034800080841E002DE9F047414C4FF4B4712DEDBE
:10349000048B608906464843FDF75DF89FED3D1BB0
:1034A00053EC112BFCF776FF41EC180B607BC0F559
:1034B000AF70FDF750F8894649EC100B054653EC08
:1034C000182B51EC100BFCF7BEFEFDF751F84FF432
:1034D000B47890FBF8F208FB120087B23046FDF793
:1034E0003AF841EC180B6068FDF735F89FED2B1B9F
:1034F00053EC112BFCF7C0FF53EC182BFCF74AFFE1
:103500009FED288B53EC182BFCF744FF41EC110B7B
:1035100049EC105B53EC112B51EC100BFCF793FEB4
:10352000FDF726F890FBF8F208FB120085B2217B2C
:103530002020FDF787FA217B4020FDF783FA2846FB
:10354000FDF709F853EC182BFCF796FF9FED179B3E
:1035500053EC192BFCF71EFFFDF729F881B2102060
:10356000FDF770FA3846FCF7F6FF53EC182BFCF722
:1035700083FF53EC192BFCF70DFFFDF718F8BDEC9A
:10358000048B81B28020BDE8F047FDF75BBA0000F4
:1035900044000020FCA9F1D24D62603F0000000011
:1035A00065CDCD41000000000080764000000000A5
:1035B00080FFCF4010B5104C10A02168FEF782FDAF
:1035C000217A13A0FEF77EFD16496068B0FBF1F189
:1035D00015A0FEF777FD19A0FEF774FD617A1DA016
:1035E000FEF770FD618920A0FEF76CFD617BBDE8F0
:1035F000104022A0FEF766BD4400002070616765A0
:10360000302E6E302E76616C3D2564FFFFFF00008A
:1036100070616765302E6E312E76616C3D2564FFDA
:10362000FFFF000040420F0070616765302E6E3270
:103630002E76616C3D2564FFFFFF000070616765B9
:10364000302E74322E7478743D22414D22FFFFFFDC
:103650000000000070616765312E6E302E76616C5F
:103660003D2564FFFFFF000070616765312E6E31FC
:103670002E76616C3D2564FFFFFF00007061676579
:10368000312E6E322E76616C3D2564FFFFFF000007
:1036900010B5FFF7BFFDFFF707FDFFF7E5FEFFF7EA
:1036A000B9FEFFF7EFFEBDE81040FEF7E3B800B546
:1036B0002DED048B83B041EC190BFDF7EDF841ECD7
:1036C000180B18EE100A18EE901A8DED008B0028DA
:1036D00018BF0120084320F00040C0F17F6000F1D6
:1036E000E040C00F14D019EE101A19EE900A8DEDBB
:1036F000009B002918BF0121084320F00040C0F1C1
:103700007F6000F1E040C00F04BF0120FFF71CFC08
:1037100051EC180B03B0BDEC048B00BD00000000A1
:103720000000000001020304060708090000000071
:103730000102030400000000000000000000F03F50
:10374000000000000000F83F000000000000000042
:103750000000004003B8E23F00000000000000004D
:1037600006D0CF43EBFD4C3E033333333333E33FDB
:10377000FFAB6FDBB66DDB3F4D268F515555D53F07
:1037800001411DA96074D13F65DBC9934A86CD3FD5
:10379000EF4E454A287ECA3F3E5555555555C53FC3
:1037A00093BDBE166CC166BF2CDE25AF6A56113FB5
:1037B000F16BD2C541BDBBBED0A4BE726937663EB7
:1037C0000000000000000000E837000800000020B2
:1037D00044000000282F00082C3800084400002076
:1037E00064040000382F0008000000000000000002
:1037F0000000D000000003020000000000000000F4
:10380000000000000000000095D626E80B2E2140A5
:103810000101000001000000100000000000000095
:0C3820000024F400000000000000000084
:040000050800018965
:00000001FF
