:020000040800F2
:10000000B806002029020008D31200088111000858
:10001000D11200081F0400086F170008000000003C
:100020000000000000000000000000004113000874
:100030002104000800000000D5120008E3130008A6
:10004000430200084302000843020008430200087C
:10005000430200084302000843020008430200086C
:10006000430200084302000843020008430200085C
:10007000430200084302000843020008430200084C
:10008000430200084302000843020008430200083C
:10009000430200084302000843020008430200082C
:1000A000430200084302000843020008430200081C
:1000B000430200084302000843020008430200080C
:1000C00043020008430200084302000843020008FC
:1000D00043020008430200084302000843020008EC
:1000E00043020008430200084302000843020008DC
:1000F00043020008430200084302000843020008CC
:1001000043020008430200084302000843020008BB
:1001100043020008430200084302000843020008AB
:10012000430200084302000843020008430200089B
:10013000430200084302000843020008430200088B
:10014000430200084302000843020008430200087B
:10015000430200084302000843020008430200086B
:10016000430200084302000843020008430200085B
:100170004302000843020008430200080000000098
:10018000430200084302000800F002F800F03CF8C7
:100190000AA090E8000C82448344AAF10107DA45E2
:1001A00001D100F031F8AFF2090EBAE80F0013F0F8
:1001B000010F18BFFB1A43F001031847CC210000C0
:1001C000EC210000103A24BF78C878C1FAD8520751
:1001D00024BF30C830C144BF04680C6070470000C1
:1001E0000023002400250026103A28BF78C1FBD840
:1001F000520728BF30C148BF0B6070471FB502F0DF
:10020000B0F81FBD10B510BD00F0D4F81146FFF7CF
:10021000F5FF01F02BFB00F0F2F803B4FFF7F2FF5B
:1002200003BC00F0F5F80000094880470948004782
:10023000FEE7FEE7FEE7FEE7FEE7FEE7FEE7FEE796
:10024000FEE7FEE704480549054A064B70470000F3
:100250007D14000889010008B8000020B8060020BD
:10026000B8020020B802002053EA020C00F06980B6
:100270002DE9F04B4FF00006002B1FBFB3FA83F5BA
:1002800003FA05F424FA05F65E4012BF1643B2FAEB
:1002900082F502FA05F4C5F120051EBF22FA05FC1D
:1002A00044EA0C04203556EA044C4FEA144418BFC3
:1002B000641C4FF000084FF00009904271EB030CF2
:1002C00039D3002919BFB1FA81F701FA07F6B0FA5C
:1002D00080F700FA07F6C7F120071EBF20FA07FCD7
:1002E00046EA0C062037B6FBF4FCA7EB0507103FE7
:1002F00007F01F0BCBF120060CFA0BFB2CFA06F6CD
:1003000044BFB3460026202FA4BF5E464FF0000B2B
:100310005BEA060C08BF4FF0010B19EB0B09ABFBB6
:10032000027C48EB0608C01B06FB02CC0BFB03CC8F
:1003300071EB0C01C1E70B46024641464846BDE859
:10034000F08B13B54FF000004FF00001AFF30080C9
:10035000BDE81C4070474FF0000200B513469446BC
:100360009646203922BFA0E80C50A0E80C50B1F10D
:100370002001BFF4F7AF090728BFA0E80C5048BF21
:100380000CC05DF804EB890028BF40F8042B08BFBF
:10039000704748BF20F8022B11F0804F18BF00F8BB
:1003A000012B704770477047704700000048704746
:1003B000580000207546FFF7F9FFAE460500694674
:1003C000534620F00700854618B020B5FFF73AFFE6
:1003D000BDE820404FF000064FF000074FF0000846
:1003E0004FF0000B21F00701AC46ACE8C009ACE8C7
:1003F000C009ACE8C009ACE8C0098D46704710B52B
:100400000446AFF300802046BDE81040FFF705BF6B
:1004100001491820ABBEFEE7260002007047FEE748
:10042000704772B6FEE7000070B500242DED088B12
:10043000B0EE408AF0EE608A254601289FED219BB0
:100440001DD09FED22AB9FED23BB00BF04F11A002E
:1004500001F09DFC53EC1A2B01F0E8FC53EC1B2B34
:1004600001F0E4FC53EC182B01F0E0FC53EC192BE9
:1004700001F0DAFD1DD20CB3641EE5B21EE09FED63
:1004800017AB00BF04F11A0001F081FC53EC1A2BEA
:1004900001F0CCFC53EC182B01F0C8FC53EC192BE9
:1004A00001F0C2FDE7D3641C3F25E4B2402CE9D340
:1004B00004E0641C3F25E4B2402CC7D3BDEC088B9C
:1004C000284670BD0000000080844E4138E92F545A
:1004D000FB210940000000000000E03FBD35B055A1
:1004E00082C5F13F70B5044600F00CF90546601C6A
:1004F00002D004480078044400F004F9401BA042F4
:10050000FAD370BD000000202DE9F84FDFF8BCA140
:100510000022012503264FF00F090AF1040BAAF16E
:10052000040E00BF0B6805FA02F42340A34270D109
:100530000F7907F00307012F01D0022F16D187682A
:100540004FEA420806FA08FC27EA0C07D1F80CC06B
:100550000CFA08FC4CEA070CC0F808C04768A7432F
:100560000C79C4F3001494403C4344600C79E44398
:10057000A4070AD0C4684FEA420C06FA0CF7BC4341
:100580008F6807FA0CF72743C7600C7904F003045F
:10059000022C12D1D40800EB840CDCF82040570761
:1005A000FF0E09FA07F824EA0804D1F8108008FAC7
:1005B00007F848EA0408CCF8208004684FEA420CA7
:1005C00006FA0CF7BC430F7907F0030707FA0CF79C
:1005D000274307604C6814F4403F70D03C4C2768B8
:1005E00047F480472760246822F0030704F480441E
:1005F0000094384C07EB040CDCF8084897074FEAE6
:10060000177809FA08F7BC43334FB84202D10027E4
:1006100024E054E0314FB84201D101271EE0304FB1
:10062000B84201D1022719E02E4FB84201D1032769
:1006300014E02D4FB84201D104270FE02B4FB842F0
:1006400001D105270AE02A4FB84201D1062705E06B
:10065000284FB84201D1072700E0082707FA08F71A
:100660002743CCF80878DAF800405746D1F804C0A0
:100670009C435FEACC2C00D51C433C60DBF8004077
:100680005F46D1F804C09C435FEA8C2C00D51C4324
:100690003C60DEF800407746D1F804C09C435FEA36
:1006A0008C3C00D51C433C60084F083F3C68D1F8A7
:1006B00004C09C435FEACC3C00D51C433C60521C08
:1006C000102AFFF42FAFBDE8F88F0000083C01406E
:1006D0004438024000300140000002400004024063
:1006E00000080240000C02400010024000140240CA
:1006F00000180240001C02400AB1816170470904E1
:10070000FBE70000014880687047000000000020FF
:10071000024881680278114481607047000000201F
:100720000B4810B5016841F400710160016841F4A3
:1007300080610160016841F480710160032000F074
:1007400061F80F2000F006F800F024F8002010BD3A
:10075000003C024070B50D4D04464FF47A71287884
:10076000B1FBF0F00A490968B1FBF0F000F0DCFAE7
:1007700048B9102C07D200222146501E00F022F862
:1007800000206C6070BD012070BD000000000020E2
:100790000C0000200A4808B5016841F4804101605E
:1007A000006800F4804000900548001F016841F097
:1007B00080510160006800F08050009008BD00008A
:1007C00044380240F0B40E4B1B680C46C3F30223BE
:1007D000C3F10705042D00D90425191D072901D2ED
:1007E000002300E0DB1E012606FA05F1491E214028
:1007F00099409E40761E16403143F0BC00F0B8BFD1
:100800000CED00E0064900F0070208684FF6FF0310
:10081000184040EA0220034A104308607047000075
:100820000CED00E00000FA052DE9F0470E4605004A
:1008300065D0DFF81481D8F80000F7B200F00700A7
:10084000B04207D288F80070D8F8000000F0070026
:10085000B04254D128683D4C810712D5400703D5DA
:10086000206840F4E05020602878000703D5206815
:1008700040F4604020602068A96820F0F000084340
:1008800020602878C0072DD03049686808390128D1
:1008900012D0022813D0032811D009688907002933
:1008A0002DDA216821F0030101432160FFF72AFFBF
:1008B000814641F2883A0EE009688903EFE709684A
:1008C0008901ECE7FFF71EFFA0EB0901514502D9B2
:1008D0000320BDE8F0872068696800F00C00B0EBE9
:1008E000810FEFD1D8F80010404601F00701B14266
:1008F00007D90770006800F00700B04201D001205E
:10090000E7E72878400705D52068E96820F4E0503B
:10091000084320602878000706D52068296920F45C
:10092000604040EAC100206000F018F82168084AE1
:10093000C1F30311515CC8400649086006480068CD
:10094000FFF708FF0020C4E7003C024008380240DF
:10095000762300080C00002004000020154810B584
:10096000006810F00C02144813D04110042A0FD074
:10097000082A0ED10F4C241F2268236802F03F0280
:100980005B0207D52068C0F38810A0FB010106E0D8
:10099000084610BD2168C1F38811A1FB00010023A6
:1009A000FFF762FC2168C1F30141491C4900B0FB1B
:1009B000F1F010BD083802400024F4002DE9F84F92
:1009C00004006ED02078DFF84C93C007A9F104052D
:1009D0004AD009F104000168C1F38101012908D05E
:1009E0000068C0F3810002280AD1D9F80000400253
:1009F00006D52868800337D560680028E1D033E049
:100A00006068B0F5803F10D0B0F5A02F286810D0F6
:100A100020F480302860286820F4802028606068F6
:100A2000A8B1FFF76FFE06460DE0286840F480305D
:100A3000F4E740F480202860F7E700BFFFF762FE8C
:100A4000801B642873D828688003F7D50CE0FFF773
:100A500059FE064605E000BFFFF754FE801B6428E0
:100A6000F0D828688003F7D42078DFF8AC828007BC
:100A70004FF0000A3ED5A748001D016811F00C0F89
:100A800008D00068C0F3810002280BD1D9F800001B
:100A9000400207D42868800716D5E068012800D1F5
:100AA00012E033E1E068B8B10120C8F80000FFF7B8
:100AB00029FE064605E000BFFFF724FE801B022842
:100AC000C0D828688007F7D52868216920F0F80089
:100AD00040EAC10028600DE0C8F800A0FFF712FE50
:100AE000064604E0FFF70EFE801B02281FD8286888
:100AF0008007F7D42078000722D5864F87486169A0
:100B0000703771B101210160FFF7FCFD064604E07A
:100B1000FFF7F8FD801B022809D838688007F7D551
:100B20000EE0C0F800A0FFF7EDFD064605E082E00C
:100B3000FFF7E8FD801B02287DD838688007F7D4CE
:100B40002078400768D5DFF8CCB100270BF13C0BCB
:100B5000DBF80000C0000BD4DBF8001041F080513E
:100B6000CBF80010DBF80000012700F08050009067
:100B70006B4E3068C00510D4306840F4807030602F
:100B8000FFF7C0FD009005E0FFF7BCFD0099401A9B
:100B9000022850D83068C005F6D55E4EA0686C3685
:100BA00001280FD00528306810D020F001003060F7
:100BB000306820F004003060A068B8B1FFF7A2FDF3
:100BC00000900FE0306840F00100F4E740F00400CE
:100BD0003060F7E7FFF796FD0099411A41F288303F
:100BE000814266D830688007F4D50EE0FFF78AFDB1
:100BF000009007E0FFF786FD0099411A41F2883026
:100C0000814256D830688007F4D42FB1DBF8001049
:100C100021F08051CBF80010A069C8B33D49091DEF
:100C20000968C1F3810102294AD00228504607D041
:100C3000C8F8600000E03CE0FFF764FD04463BE0DC
:100C40004746C8F86000FFF75DFD064605E000BFB7
:100C5000FFF758FD801B02282BD828688001F7D4A5
:100C6000D4E907010843A16A2E4A490802EB014171
:100C7000626A41EA8211084394F82C1040EA01614B
:100C8000C9F8001001203866FFF73CFD044606E075
:100C90003EE000BFFFF736FD001B022809D8286898
:100CA0008001F7D534E000BFFFF72CFD001B0228C0
:100CB00002D90320BDE8F88F28688001F4D427E02A
:100CC0000128F7D0D9F80000E26900F480019142D0
:100CD0001CD1226A00F03F01914217D147F6C07142
:100CE000626A0140B1EB821F10D1A26A4FF0FF335C
:100CF00000F4403103EB5202B1EB024F06D194F8FD
:100D00002C1000F07060B0EB016F01D00120D1E732
:100D10000020CFE70438024000004742800E4742DF
:100D2000007000400000FFFF10B5401EB0F1807F52
:100D300001D3012010BD4FF0E02460610F21601746
:100D400000F016FD0020A06107202061002010BDEA
:100D500070B590F83C20012A32D0012480F83C4044
:100D6000022280F83D2003685A689D6822F07006D0
:100D70000A6832435A60134B02689A4214D0B2F1A7
:100D8000804F11D0104B9A420ED0104B9A420BD08C
:100D90000F4B9A4208D00F4B9A4205D00E4B9A4205
:100DA00002D00E4B9A4204D1496825F080031943C2
:100DB000916080F83D40002180F83C10084670BDED
:100DC000022070BD00000140000400400008004007
:100DD000000C0040000401400040014000180040A9
:100DE00010B5040003D094F83D0010B107E00120D5
:100DF00010BD002084F83C00204600F01FF80220BF
:100E000084F83D00211D206800F040FB012084F89B
:100E1000460084F83E0084F83F0084F8400084F8DF
:100E2000410084F8420084F8430084F8440084F8C8
:100E3000450084F83D00002010BD000008B50068A2
:100E40000649884208D10648016841F00201016064
:100E5000006800F00200009008BD0000000400409F
:100E60004038024070B5044690F83C000025012847
:100E700017D0012684F83C60022084F83D002068E9
:100E8000826822F0770222F47F428260086850284C
:100E900038D00DDC20284FD005DC90B3102811D1BC
:100EA0004AE0022070BD302846D040280AD13BE0FD
:100EB00060282FD070280DD0B0F5805F03D0B0F53A
:100EC000005F12D0012584F83D60002084F83C00CA
:100ED000284670BDCB68D1E90121206800F04FFBA6
:100EE0002068816841F0770109E0CB68D1E90121F0
:100EF000206800F044FB2068816841F480418160F3
:100F0000E1E719E0CA684968206800F00DFC50214B
:100F1000206806E0CA684968206800F016FC602175
:100F2000206800F036FBCEE7CA684968206800F008
:100F3000FBFB40212068F4E7226801461046F0E7F9
:100F400010B586B0044614216846FFF704FA0D492F
:100F50002068884214D10C480021026842F0010246
:100F60000260006800F0010005904020009002201F
:100F7000CDE90101CDE9031069460448FFF7C4FA41
:100F800006B010BD000400403038024000000240AE
:100F900070B5044690F83C0000260D4601280FD09D
:100FA000012084F83C006AB1042A1DD0082A2FD001
:100FB0000C2A3FD00126002084F83C00304670BD4A
:100FC000022070BD206800F0EDFA2068816941F0D0
:100FD000080181612068816921F004018161206834
:100FE00081692A69114311E0206800F00BFB206839
:100FF000816941F4006181612068816921F4806127
:101000008161206881692A6941EA02218161D2E710
:10101000206800F02DFB2068C16941F00801C16122
:101020002068C16921F00401C1612068C1692A6991
:10103000114311E0206800F04FFB2068C16941F4C2
:101040000061C1612068C16921F48061C1612068CB
:10105000C1692A6941EA0221C161ACE710B5040007
:1010600003D094F83D0010B107E0012010BD00202E
:1010700084F83C00204600F01EF8022084F83D0071
:10108000211D206800F002FA012084F8460084F84F
:101090003E0084F83F0084F8400084F8410084F862
:1010A000420084F8430084F8440084F8450084F842
:1010B0003D00002010BD704710B50446022249B122
:1010C00004290ED0082913D094F84100012816D025
:1010D000012010BD94F83E000128F9D184F83E208B
:1010E0000FE094F83F000128F2D184F83F2008E097
:1010F00094F840000128EBD184F8402001E084F806
:1011000041200122206800F02DFA16492068164A75
:10111000884201D0904203D1436C43F400434364BE
:101120002068884213D0B0F1804F10D00F49884218
:101130000DD00F4988420AD00E49884207D090420C
:1011400005D00D49884202D00C49884204D18168FB
:1011500001F00701062903D0016841F00101016097
:10116000002010BD000001400004014000040040C8
:1011700000080040000C0040004001400018004002
:10118000FEE700000E4B10B51A6892B260F303023E
:1011900061F305121A600A4C0022143C40212046DB
:1011A000FFF7AAFA0120FFF79DF90122402120460E
:1011B000FFF7A2FABDE810400120FFF793B9000045
:1011C0001408024030B587B014216846FFF7C3F811
:1011D00016480024016841F080010160016801F0B7
:1011E00080010591016841F004010160016801F08E
:1011F00004010591016841F00101016000680C4D96
:1012000000F00100059000227F212846FFF774FAC4
:101210007F2000900120CDE901040320039069465E
:101220002846FFF771F907B030BD000030380240A2
:101230000008024010B58EB0002407940894099469
:101240000A940B941C2168460C94FFF784F81F48FD
:101250001D4901605321C0E9011440F2E731C0E9A2
:1012600003148461FFF7BCFD08B1FFF7DAF84FF40F
:101270008050079007A91548FFF7F4FD08B1FFF764
:10128000D0F81248FFF7EAFE08B1FFF7CAF80B944E
:101290000BA90E480C94FFF75BFD08B1FFF7C1F8EE
:1012A000602000904FF4FA70CDE9010400226946F5
:1012B00006480494FFF76CFE08B1FFF7B2F8034844
:1012C000FFF73EFE0EB010BD0004004010000020ED
:1012D000FEE7FEE77047000010B501280DD09FED36
:1012E000121AC1EE000A9FED110A30EE600ABCEE40
:1012F000C00A10EE100AC0B210BD10EE100A00F0C5
:10130000BFFF41EC100B53EC102B9FED090B51EC80
:10131000100B00F0B7FB9FED081B53EC112B00F0F6
:10132000B9FE00F007FDE6E7000080420000004340
:10133000713D0AD7A3A056400000000000006040A5
:10134000704710B5044601460420FFF71BFFA408B0
:1013500021460520FFF716FFA40821460620FFF7C7
:1013600011FFC4F38001BDE810400720FFF70ABF5A
:1013700010B5044601460120FFF704FFA4082146EA
:101380000220FFF7FFFEA108BDE810400320FFF791
:10139000F9BE10B5044601460C20FFF7F3FEA40881
:1013A00021460D20FFF7EEFEA40821460E20FFF790
:1013B000E9FEC4F38001BDE810400F20FFF7E2BE54
:1013C00010B5044601460920FFF7DCFEA4082146BB
:1013D0000A20FFF7D7FEA108BDE810400B20FFF759
:1013E000D1BEFFF795B9000030B593B03021684603
:1013F000FEF7B1FF14210CA8FEF7ADFF1D48002534
:10140000016841F080510160006800F08050119047
:101410001948016841F4804101600068022400F429
:101420008040119001200090000401908001CDE9DE
:10143000064008AA0420A82182E813000B90684601
:10144000FFF7BCFA08B172B6FEE70CA90F2081E8DD
:1014500031004FF4A0500F904FF4805010900521B0
:101460000CA8FFF7E1F9002801D072B6FEE713B02F
:1014700030BD000040380240007000400248016862
:1014800041F470010160704788ED00E0F0B502683A
:10149000294C2A4D2A4E2B4F2B4B4FF0804CA0420B
:1014A00009D0604507D0A84205D0B04203D0B84269
:1014B00001D0984204D122F0700E4A6842EA0E022E
:1014C000A0421BD0604519D0A84217D0B04215D019
:1014D000B84213D0984211D01C4DA8420ED01C4DDA
:1014E000A8420BD01B4DA84208D01B4DA84205D0E6
:1014F0001A4DA84202D01A4DA84203D122F44075D9
:10150000CA682A434D6922F080022A4302608A6831
:10151000C2620A688262A04201D0984201D1096980
:101520000163012141610169C90703D0016921F00B
:1015300001010161F0BD0000000001400004004015
:1015400000080040000C0040000401400040014041
:10155000004401400048014000180040001C0040C9
:101560000020004010B501F01F030121046A9940DA
:101570008C430462016A9A401143016210BD10B5A8
:10158000846842EA032224F47F440A4322438260AF
:1015900010BD826822F070020A4342F007018160A8
:1015A00070470000F0B5036A026A22F0010202628D
:1015B00042688469124E24F073050C682C4323F0B2
:1015C00002058B682B430D4DA84201D0B04205D1D6
:1015D00023F00807CB683B4323F00403A84201D063
:1015E000B04205D14D6922F4407215438A692A43FD
:1015F00042608461496841630362F0BD00000140BC
:1016000000040140F0B5026A036A23F0100303628C
:10161000436884690D6824F4E64444EA05248D682F
:1016200022F0200242EA05120F4D104EA84201D0CE
:10163000B04206D1CF6822F0800242EA071222F0BF
:101640004002A84201D0B04207D14D6923F4406363
:1016500043EA85038D6943EA8503436084614968F1
:1016600081630262F0BD00000000014000040140FF
:10167000F0B5026A036A23F4807303624368C469A5
:1016800022F4007224F073050C68124E2C438D680E
:1016900042EA05220E4DA84201D0B04206D1CF68E1
:1016A00022F4006242EA072222F48062A84201D0BA
:1016B000B04207D14D6923F4405343EA05138D69C5
:1016C00043EA05134360C4614968C1630262F0BD27
:1016D000000001400004014030B5046A026A22F4AF
:1016E000805202624268C3690D6823F4E64343EA0C
:1016F00005238D6824F4005444EA0534084DA842BB
:1017000002D0084DA84204D14D6922F4804242EA39
:1017100085124260C36149680164046230BD000003
:10172000000001400004014010B5036A046A24F07F
:1017300001040462846924F0F00444EA021423F0F2
:101740000A020A438461026210BD10B5036A046A8A
:1017500024F010040462846923F0A00324F470448C
:1017600044EA023243EA01118261016210BDFEE7E0
:101770000907090E002804DB00F1E02080F80014BE
:10178000704700F00F0000F1E02080F8141D704752
:101790002DE9F0410E462DED028BB0EE408A054654
:1017A000B0EE600AFFF798FD074618EE100A00F049
:1017B00067FD41EC100B2846FEF736FE044629462D
:1017C00086B30820FFF7DEFC2046FFF7F9FD384618
:1017D000FFF7DFFD18EE100A012D2ED000F050FDAE
:1017E00041EC180B04F11A0000F0D1FA9FED191B1F
:1017F00053EC112B00F01AFB41EC100B9FED171B63
:1018000051EC100B53EC112B00F010FB53EC182B88
:1018100000F00CFB00F050F8BDEC028B00EE100A5B
:10182000BDE8F081FFE70020FFF7ACFC2046FFF7A2
:101830009FFD3846FFF785FDCCE700F021FD41EC28
:10184000180B04F11A0000F0A2FA41EC100B9FED06
:10185000051BD5E738E92F54FB21094000000000A3
:101860000000E03FBD35B05582C5F13FFEF758FF9F
:10187000FFF7BAFDFFF7A6FCFFF7DCFC4FF4FA74A4
:101880002046FEF72FFE0948FFF7E8FB0021074836
:10189000FFF712FC01210220DFED050A9FED050A8A
:1018A000FFF776FF014801684C63FCE71000002059
:1018B000CFF7333F00007A4421F00042A2F160529A
:1018C000B2F5801F01F0004328BFD2F17F6C0BD925
:1018D0005FEA001C43EAC20242EB507018BF704737
:1018E00028BF20F001007047B2F5801FBCBF18462A
:1018F00070474FEA410C1CF5001F02D2084600F069
:1019000035BD70B500F03CFB00000089FFF7F6BF65
:101910004FF00040A0F580007047000010B591EA3C
:10192000030F48BF83F0004300F1C883841A71EBB2
:10193000030C05D2121943EB0C03001B61EB0C01E5
:10194000DFF824E14FEA1154A4EB135C1EEA430FC5
:1019500018BF9EEA445F73D023EA0E03DCF1200E29
:1019600021EA045143F4801332D322FA0CFE10EB27
:101970000E0023FA0CFE41EB0E01CCF1200E03FA0F
:101980000EFE10EB0E0051F10001B1F5801FCCF1FD
:10199000200E32D201EB045112FA0EF2BDE81040D3
:1019A00058BF7047401C38BF5FEA420218BF7047FB
:1019B000002814BF20F0010041F100014FEA41036B
:1019C00013F5001F38BF7047A1F1C04100F026BBDE
:1019D000012A43EB0302ACF1200CDCF11F0E32BFF5
:1019E0004FF0000E23FA0CF310EB030041EB04510F
:1019F000B4EB115FD0D0A1EB045101F5801149087F
:101A00005FEA300001EB04510ED350F1000038BF03
:101A100012FA0EFE08D1BDE81040C9E7401C38BFDD
:101A20005FEA4202CAD1C3E7BDE810404FEA410372
:101A300013F5001F38BF7047A1F1C04100F0EEBAA6
:101A40009EEA445F08D011EA5E0FBDE8104004BF73
:101A500001F0004100207047BDE8104070B500F073
:101A60008FFA00BF64FBBE3E0000E0FF491058BF84
:101A7000C1F140415B1058BFC3F140438B42EFF3CB
:101A8000008070472DE9C04130B4DFF8A0C23CEAC5
:101A9000111418BF3CEA131400F0EC8081EA03052E
:101AA0001CEA111444EAD57418BF1CEA131500F09F
:101AB000C780A4EB05044FF0004545EAC12145EA83
:101AC000C32341EA505143EA525304F17F749942CF
:101AD00004F500344FEAC0204FEAC22208BF90420A
:101AE00000F09C804FEA13650FF24016765D4FEAD6
:101AF000134506FB05F7C7F1807706FB07F74FEAAA
:101B0000D737A7FB03687642C8F58038A7FB06CE17
:101B100038BFA8F1010807FB08E64FF0000EA6FB4E
:101B2000028CE6FB03CEDCF1000CCEF1004E38BF98
:101B3000AEF1010EA6FB0C584FF000074FF0000568
:101B4000E6FB0E87A1FB08C6A0FB07CE16EB0E0630
:101B500045F10005E1FB076515F1E04E7EBFA4F5F8
:101B600080345FEA46066D4116F1800745F10005B5
:101B70004FEA17274FEA066647EA0567A6F1DE46F1
:101B8000B6F1805F4FEA15251FD9384624F0010CC5
:101B900005EBC471BCF1FE6F01EB0C1102D8F0BC77
:101BA000BDE8008124425CBF01F5801E9EEAC47F2F
:101BB00002D4F0BCBDE80081244238D4F0BCA1F1CD
:101BC000C041BDE8004100F029BA4FEAD22242EA02
:101BD00043524FEAD323A7FB02864FEAD02040EAC4
:101BE000415007FB03661EEA0E0F4FEAD12105FBA9
:101BF000026658BFA6EB0056B6EB00564FEA520EEF
:101C00004EEAC37E18EB0E0E56EB530EBDD518EB05
:101C100002085E417F1C55F10005B6E74FF48015C0
:101C20004FF000074FF000064FF00008ADE7F0BCA2
:101C30004FF0000001F1C04101F00041BDE800811A
:101C400011EA0C1F0CEA131500D00CE013EA0C1F6C
:101C500000F025804FF00000F0BC81EA030101F0A4
:101C60000041BDE80081F0BCBDE8004181EA03010C
:101C700000F0D4B9F0BCBDE8004170B500F080F9C7
:101C8000097EFC3E00F007B881EA03014FF0000036
:101C900001F00041704781EA030100F0BFB9F0BCD8
:101CA000BDE800414FF0000021497047FFFDFBF9FE
:101CB000F7F5F4F2F0EEEDEBE9E8E6E4E3E1E0DE7F
:101CC000DDDBDAD8D7D5D4D3D1D0CFCDCCCBCAC8F1
:101CD000C7C6C5C4C2C1C0BFBEBDBCBBBAB9B8B718
:101CE000B6B5B4B3B2B1B0AFAEADACABAAA9A8A80B
:101CF000A7A6A5A4A3A3A2A1A09F9F9E9D9C9C9BD9
:101D00009A99999897979695959493939291919083
:101D10008F8F8E8E8D8C8C8B8B8A89898888878714
:101D20008685858484838382828181800000FF0789
:101D30000000F87F4FEA1153A3F58063D3F11E032F
:101D4000A8BFD3F1200C08DB4FF0004242EAC122C9
:101D500052EA505232FA03F0704709420BD4102B6A
:101D6000C4BF0020704703F5787CBCF1FF3F05D06D
:101D70004FF0FF3070474FF00000704770B500F033
:101D8000FFF800BF4992248000207047F0E7B0FAC6
:101D900080F310FA03F10AD0C3F11D0303F5806349
:101DA0004FEA41504FEA035202EBD12170474FF006
:101DB0000000704751EA030C17D41CF5801F58BF70
:101DC000BCF5801F00F10680994218BF704708BF1C
:101DD0009042704707D711F5801F58BF13F5801F39
:101DE00019D499427047894270471CF5801F08D565
:101DF000BCF5801FF7D58B4218BF704708BF8242E1
:101E000070474FF4001C1CEB410F38BF1CEB430F15
:101E100001D28B42704770B500F0B2F892244900AD
:101E20004FF000514FF08053FFF720BEDFF848C15C
:101E300070B51CEA111E1EBF1CEA13159EEA0C0F9A
:101E400095EA0C0F00F06F8081EA030423EA4C133B
:101E50004EEAD47E21EA4C1141F4801143F4801300
:101E6000AE44A1FB024CA0FB0365AEF17F7E3619A8
:101E700055EB0C05A1FB034C4CF10003A0FB021C2D
:101E800016EB0C06654153F10003094218BF46F0FA
:101E9000010613F4007F0BD14FEA03314FEA0530FE
:101EA000340341EA155140EA16506FF003020AE08C
:101EB0004FEAC3214FEAC520F40241EA555140EAF6
:101EC00056506FF0020202EB2E4201EB025585EAFA
:101ED000CE710AD05FEA440C18BF24F0004450F1E0
:101EE000000041F1000120EAD47040F2FE7C62451E
:101EF00000D270BDA84214BF4FF080444FF0404460
:101F0000002E08BF0024BEF1806FA8BFA1F1C04120
:101F1000BDE8704080F282804FF0000001F1C041C6
:101F200001F0004170479EEA0C0F0CEA131518BF30
:101F300095EA0C0F06D04FF0000081EA030E0EF078
:101F4000004170BD00F01CF88900013E00F007B8A8
:101F500000F009B84FEA430C5FEA5C5C08D081EA04
:101F6000030100F05BB84FEA410C5FEA5C5CF6D11C
:101F70004FF00000014970470000FF070000F87FA4
:101F80000EF1020E2EF0030E5EF8046B364205D4FD
:101F9000012A43EB030515F5001F12D8012841EB78
:101FA000010C1CF5001F0CD80ED14FEAD17C15F5A1
:101FB000001F0CEB4C0C0CF1020C08BF4CEBD37C5B
:101FC00004E04FF0080C01E04FEAD37C0CEB4C0529
:101FD00026FA05F606F00706B6F1040C06D20EEB5B
:101FE000860CBDE870404CF0010C6047DFE80CF057
:101FF000090B02024FF000414FF00000A1F5002153
:1020000070BD19461046012851EB010418BFD4F5E4
:10201000001484BF002001F0004170BD0808A0F545
:1020200000114FEA3101704753EA010C17D41CF537
:10203000801F58BFBCF5801F00F106808B4218BF7F
:10204000704708BF8242704707D713F5801F58BFFB
:1020500011F5801F19D48B4270479B4270471CF5C5
:10206000801F08D5BCF5801FF7D5994218BF70476F
:1020700008BF904270474FF4001C1CEB430F38BF61
:102080001CEB410F01D2994270470FB40CBC03BC4A
:10209000FFF7C1BE91EA030F10B581F000413FF593
:1020A00045AC83F0004300F009B8000010B591EA98
:1020B000030F48BF83F000433FF538AC841A71EB3F
:1020C000030C07D212198CF0004C43EB0C03001BDD
:1020D00061EB0C01DFF8A4E14FEA1154A4EB135CAF
:1020E0001EEA430F18BF9EEA445F00F0B08023EA67
:1020F0006E03524221EA0451C3EB6E0338BF5B1EEC
:10210000DCF1200E25D322FA0CFE10EB0E0043FA70
:102110000CFE41EB0E01CCF1200E03FA0EFE10EB8B
:102120000E0051F10001CCF1200E29D412FA0EF26A
:1021300001EB0451BDE8104058BF7047401C1CBF64
:10214000B2F1004F704700280CBF491C20F001007D
:10215000704712EB020E43EB030218BF4FF0010E63
:102160004EEA4202ACF1200CDCF11E0E54D943FAC7
:102170000CFE10EB0E0051F1FF31CCF11E0ED5D547
:102180000EF1010E12FA0EFE404141EB010101EB8E
:10219000445C5FEA5C5C10D910EBDE7001EB04512B
:1021A00038BFBEF1004FBDE8104018BF704700288F
:1021B0000CBF491C20F00100704730D24FEAD42CEC
:1021C00011F5001124F400641BD0B1FA81F20B3A2E
:1021D000A41AA41ED2F12003914030FA03F319434C
:1021E000904001EBCC71002C01EB0451BDE8104094
:1021F000A8BF704701F1C0414FF0000001F000415D
:102200007047B0FA80F310FA03F100D110BDE41A60
:10221000173C4805C90AE4E701EB045110BD491019
:1022200001EB0451BDE810404FEA300002E04FF0EE
:10223000000170474A0008BF0042F8D0B2F5001F05
:1022400028BF704701F000414FF0000070479EEA40
:10225000445F07D011EA5E0FBDE8104004BF0021C3
:1022600000207047BDE8104070B5FFF789FE00BF41
:1022700040DFF63E83F00041104670470000E0FF6B
:1022800043004FEAD30C4FEA3C0C43401FBF4007CA
:102290000CF1605113F0FE4F70471CF0006F03D13A
:1022A00000200CF0004170470CF0004343EA5070EE
:1022B00010B540EACC0000F00EF800BF000000921C
:1022C0004FEA0001FFF7AABE4FF000414FF00000B7
:1022D000A1F5002170470EF1020E2EF0030E5EF8FC
:1022E000044B244204D44FEA4102B2F17F4F11D88B
:1022F0004FEA4003B3F17F4F0CD80ED14FEAD07CA8
:10230000B2F17F4F0CEB4C0C0CF1020C08BF4CEB04
:10231000D17C04E04FF0080C01E04FEAD17C0CEBDB
:102320004C0324FA03F404F00704B4F1040C06D2BD
:102330000EEB840CBDE810404CF0010C6047DFE868
:102340000CF0070802024FF00040A0F5800010BD1D
:102350000846420018BFD2F1807288BF00F00040EA
:1023600010BD4FF04070E1EE100A7047FF2141EAC6
:10237000D050C005704700000000000000000102BE
:102380000304060708090000A82300080000002035
:1023900010000000C4010008B8230008100000204D
:1023A000A8060000E0010008010000001000000085
:0823B000000000000024F4000D
:040000050800018965
:00000001FF
